:020000040800F2
:1000000000000220497E0008851F0008871F0008A5
:10001000891F00088B1F00088D1F000800000000CA
:100020000000000000000000000000008F1F00081A
:10003000911F000800000000931F0008951F000892
:10004000997E0008997E0008997E0008997E000834
:10005000997E0008997E0008997E0008997E000824
:10006000997E0008997E0008997E0008997E000814
:10007000997E0008997E0008997E0008997E000804
:10008000997E0008997E0008997E0008997E0008F4
:10009000997E0008997E0008997E0008997E0008E4
:1000A000997E0008997E0008997E0008997E0008D4
:1000B000997E00089D1F0008997E0008997E00081F
:1000C000997E0008997E0008997E0008997E0008B4
:1000D000997E0008997E0008DD1F0008997E0008BF
:1000E000997E0008997E0008997E0008997E000894
:1000F000997E0008997E0008997E0008997E000884
:10010000997E0008997E0008997E0008997E000873
:10011000997E0008997E0008997E0008997E000863
:10012000997E0008997E0008997E0008997E000853
:10013000997E0008997E0008997E0008997E000843
:10014000997E0008997E0008997E0008ED1F00083E
:10015000997E0008997E0008997E0008997E000823
:10016000FD1F00080D200008997E0008997E0008F8
:10017000997E0008997E0008997E00080000000022
:08018000997E0008997E000839
:1001880010B5054C237833B9044B13B10448AFF3C9
:1001980000800123237010BDC8000020000000006B
:1001A8009480000808B5034B1BB103490348AFF31B
:1001B800008008BD00000000CC00002094800008EA
:1001C80081F0004102E000BF83F0004330B54FEA00
:1001D80041044FEA430594EA050F08BF90EA020F6D
:1001E8001FBF54EA000C55EA020C7FEA645C7FEA00
:1001F800655C00F0E2804FEA5454D4EB5555B8BF23
:100208006D420CDD2C4480EA020281EA030382EA93
:10021800000083EA010180EA020281EA0303362D25
:1002280088BF30BD11F0004F4FEA01314FF4801CF8
:100238004CEA113102D0404261EB410113F0004F0A
:100248004FEA03334CEA133302D0524263EB4303C1
:1002580094EA050F00F0A780A4F10104D5F1200E5F
:100268000DDB02FA0EFC22FA05F2801841F10001BA
:1002780003FA0EF2801843FA05F359410EE0A5F18E
:1002880020050EF1200E012A03FA0EFC28BF4CF0BF
:10029800020C43FA05F3C01851EBE37101F0004575
:1002A80007D54FF0000EDCF1000C7EEB00006EEB82
:1002B8000101B1F5801F1BD3B1F5001F0CD349080C
:1002C8005FEA30004FEA3C0C04F101044FEA445263
:1002D80012F5800F80F09A80BCF1004F08BF5FEAEA
:1002E800500C50F1000041EB045141EA050130BDCA
:1002F8005FEA4C0C404141EB010111F4801FA4F16D
:100308000104E9D191F0000F04BF01460020B1FAC1
:1003180081F308BF2033A3F10B03B3F120020CDAF9
:100328000C3208DD02F1140CC2F10C0201FA0CF0D7
:1003380021FA02F10CE002F11402D8BFC2F1200C3C
:1003480001FA02F120FA0CFCDCBF41EA0C019040F2
:10035800E41AA2BF01EB0451294330BD6FEA04043B
:100368001F3C1CDA0C340EDC04F11404C4F1200226
:1003780020FA04F001FA02F340EA030021FA04F338
:1003880045EA030130BDC4F10C04C4F1200220FA8F
:1003980002F001FA04F340EA0300294630BD21FACD
:1003A80004F0294630BD94F0000F83F4801306BF93
:1003B80081F480110134013D4EE77FEA645C18BF87
:1003C8007FEA655C29D094EA050F08BF90EA020F1E
:1003D80005D054EA000C04BF1946104630BD91EA16
:1003E800030F1EBF0021002030BD5FEA545C05D119
:1003F8004000494128BF41F0004130BD14F5800458
:100408003CBF01F5801130BD01F0004545F0FE41CB
:1004180041F470014FF0000030BD7FEA645C1ABF00
:10042800194610467FEA655C1CBF0B46024650EA37
:10043800013406BF52EA033591EA030F41F4002163
:1004480030BD00BF90F0000F04BF0021704730B5E9
:100458004FF4806404F132044FF000054FF00001BE
:1004680050E700BF90F0000F04BF0021704730B57F
:100478004FF4806404F1320410F0004548BF404254
:100488004FF000013EE700BF42004FEAE2014FEAA9
:1004980031014FEA02701FBF12F07F4393F07F4F84
:1004A80081F06051704732F07F4208BF704793F087
:1004B8007F4F04BF41F40021704730B54FF460749A
:1004C80001F0004521F000411CE700BF50EA01029D
:1004D80008BF704730B54FF000050AE050EA010246
:1004E80008BF704730B511F0004502D5404261EBB6
:1004F80041014FF4806404F132045FEA915C3FF4F7
:10050800D8AE4FF003025FEADC0C18BF03325FEA93
:10051800DC0C18BF033202EBDC02C2F1200300FA44
:1005280003FC20FA02F001FA03FE40EA0E0021FA69
:1005380002F11444BDE600BF4FF0FF3C06E000BFE7
:100548004FF0010C02E000BF4FF0010C4DF804CD54
:100558004FEA410C7FEA6C5C4FEA430C18BF7FEA14
:100568006C5C1BD001B050EA410C0CBF52EA430C42
:1005780091EA030F02BF90EA020F0020704710F1C2
:10058800000F91EA030F58BF994208BF90422CBF51
:10059800D8176FEAE37040F0010070474FEA410C4A
:1005A8007FEA6C5C02D150EA013C07D14FEA430C68
:1005B8007FEA6C5CD6D152EA033CD3D05DF8040BD9
:1005C800704700BF8446104662468C46194663460B
:1005D80000E000BF01B5FFF7B7FF002848BF10F1E2
:1005E800000F01BD4DF808EDFFF7F4FF0CBF012027
:1005F80000205DF808FB00BF4DF808EDFFF7EAFFA3
:1006080034BF012000205DF808FB00BF4DF808ED5D
:10061800FFF7E0FF94BF012000205DF808FB00BF52
:100628004DF808EDFFF7CEFF94BF012000205DF8DC
:1006380008FB00BF4DF808EDFFF7C4FF34BF0120E9
:1006480000205DF808FB00BF53B94AB9002908BF6C
:1006580000281CBF4FF0FF314FF0FF3000F072B997
:10066800ADF1080C6DE904CE00F006F8DDF804E001
:10067800DDE9022304B070472DE9F047089E0446DF
:100688008846002B4BD18A42154667D9B2FA82F2C6
:100698004AB1C2F1200701FA02F320FA07F79540A0
:1006A80047EA030894404FEA154E230CB8FBFEF7BF
:1006B8001FFA85FC0EFB178843EA084307FB0CF179
:1006C800994209D9EB1807F1FF3080F01B81994254
:1006D80040F21881023F2B445B1AA4B2B3FBFEF030
:1006E8000EFB103344EA034400FB0CFCA44509D973
:1006F8002C1900F1FF3380F00781A44540F20481F2
:1007080002382C4440EA0740A4EB0C0400271EB131
:10071800D4400023C6E900433946BDE8F0878B4240
:1007280009D9002E00F0EB800027C6E90001384601
:100738003946BDE8F087B3FA83F7002F47D18B42DB
:1007480002D3824200F2FA80841A61EB030301208B
:100758009846002EE0D0C6E90048DDE702B9FFDE82
:10076800B2FA82F2002A40F08F80491B4FEA154EF8
:100778001FFA85F80127B1FBFEFC230C0EFB1C11A8
:1007880043EA014308FB0CF1994207D9EB180CF135
:10079800FF3002D2994200F2CD808446591AA3B2A2
:1007A800B1FBFEF00EFB101443EA044408FB00F80A
:1007B800A04507D92C1900F1FF3302D2A04500F259
:1007C800B6801846A4EB080440EA0C409FE7C7F13E
:1007D800200CBB4022FA0CFE4EEA030E01FA07F485
:1007E80020FA0CF521FA0CF34FEA1E482543B3FB17
:1007F800F8F92C0C08FB19331FFA8EFA44EA034364
:1008080009FB0AF49C4202FA07F200FA07F10BD935
:100818001EEB030309F1FF3080F087809C4240F211
:100828008480A9F1020973441B1BADB2B3FBF8F035
:1008380008FB103345EA034400FB0AFAA24508D92D
:100848001EEB040400F1FF336BD2A24569D90238CC
:10085800744440EA0940A0FB0289A4EB0A044C4511
:10086800C2464B4654D351D0002E69D0B1EB0A058D
:1008780064EB030404FA0CFCFD40FC404CEA05055B
:10088800C6E90054002747E7C2F1200320FA03F71E
:10089800954001FA02F021FA03F34FEA154E384366
:1008A800010CB3FBFEF71FFA85F80EFB173341EA7C
:1008B800034107FB08F38B4204FA02F407D96918CD
:1008C80007F1FF3C2FD28B422DD9023F2944CB1A86
:1008D80081B2B3FBFEF00EFB103341EA034100FB8B
:1008E80008F38B4207D9691800F1FF3C17D28B42F5
:1008F80015D902382944C91A40EA07473BE7374661
:10090800304609E70746E7E61846FBE64145ABD21D
:10091800B8EB020A69EB0E0201381346A4E76046F9
:10092800E9E7184695E76746D1E781467CE702384C
:100938002C4447E7ACF1020C2B442FE7384608E774
:100948003746E9E6704700BF00B583B08DF804105C
:100958008DF80520022301AA8178806900F0C5FE80
:1009680003B05DF804FB00B583B08DF80410130ADA
:100978008DF805308DF80620032301AA8178806957
:1009880000F0B3FE03B05DF804FB00B583B08DF84A
:100998000010130E8DF80130C2F307438DF80230B2
:1009A800C2F307238DF803308DF8042005236A4627
:1009B8008178806900F099FE03B05DF804FB10B5FA
:1009C80084B0044604AA02F8091D012381788069CD
:1009D80000F08BFE01230DF10F02A178A06900F051
:1009E8007BFE9DF80F0004B010BD10B584B004461E
:1009F80004AA02F8091D01238178806900F075FEB8
:100A0800022303AAA178A06900F066FE9DF80C00F5
:100A18009DF80D3043EA002004B010BD70B582B0D7
:100A2800044615461E4602AA02F8011D01238178D4
:100A3800806900F05AFE33462A46A178A06900F082
:100A480054FE02B070BD70B582B0044615461E460D
:100A580002AA02F8011D01238178806900F045FE91
:100A680033462A46A178A06900F036FE02B070BD70
:100A7800B5EEC00AF1EE10FA22D410B52DED028BB6
:100A8800B0EE408A044610EE100AFFF7FDFC0FA3F3
:100A9800D3E90023FFF7CEFD18B10020BDEC028B8F
:100AA80010BD9FED090A28EE000ABCEEC00A10EE40
:100AB800103A9AB244212046FFF755FF0120EDE78E
:100AC80000207047AFF3008000000043A4703D0A87
:100AD800D7FF7F4008B519B1012909D0FF2008BD0B
:100AE8005021FFF76CFF0130C0B24000C0B2F6E7FA
:100AF8007021FFF764FF0130C0B24000C0B2EEE7DA
:100B080038B504460D4601228021FFF71DFF01225A
:100B1800FF212046FFF718FF002211462046FFF765
:100B280013FF227C91212046FFF70EFF01220021AE
:100B38002046FFF709FF0022FF212046FFF704FFA8
:100B4800002280212046FFF7FFFE8DB1F8212046C4
:100B5800FFF74BFF08B100FB05F52A4604212046A4
:100B6800FFF713FF042200212046FFF7EDFE38BDF2
:100B7800022200212046FFF7E7FEF8E710B50C46F1
:100B88000121FFF71CFFC0F300132370C0F3C0035B
:100B9800A370C0F380036370C0F38013E370C0F3E5
:100BA800C710003018BF0120207110BDC3B2000A61
:100BB80003FA00F080B2013080B2704768B10138A2
:100BC800002302E0400801339BB230F0FF02F9D164
:100BD8001B029BB2C0B2184370477047074B03FB18
:100BE80001F101F5FA71064AA2FB01318B09C90925
:100BF80003FB0010A2FB003080097047002F3A0069
:100C0800D34D621070B505460E4614460021FFF715
:100C180061FF208046212846FFF7D1FE80B20130CF
:100C280080B2A0802178FFF7D9FFE06051212846E3
:100C3800FFF7DBFEFFF7BAFFE0802178FFF7CEFF72
:100C4800206101212846FFF745FF60807121284671
:100C5800FFF7CBFEFFF7AAFF2081F37813B1E388F3
:100C6800C01A2081A1782089FFF7B8FF606170BDA4
:100C780010B588B0044606A9FFF780FF6A4606A9A2
:100C88002046FFF7BFFF9DF81830DBB1039800F648
:100C980084509DF81A30C3B1039B03F2B22300EBD2
:100CA80043009DF81B301BB1049B184400F52570C8
:100CB8009DF81C301BB1059B184400F2262060618A
:100CC80008B010BD40F63630E3E79DF81930002B28
:100CD800E7D0039B184400F52570E2E7084B03FBB7
:100CE80001F101F5FA71074BA3FB01318A09C90922
:100CF8004FF47A7303FB0010B0FBF2F0704700BFAB
:100D0800002F3A00D34D6210F0B589B044F61F6346
:100D1800994203D80024204609B0F0BD0D46064686
:100D280006A9FFF72BFF6A4606A93046FFF76AFFB8
:100D38009DF8183063B3039B03F636339DF81A20E9
:100D48004AB3039A02F2B22203EB42039DF81B70E6
:100D58001FB10498034403F525739DF81C401CB388
:100D680003F226239D4221D39DF80210E81AFFF7CB
:100D7800B5FF80B21FB1BDF80630184480B2FFF746
:100D88001DFF024671213046FFF7EDFD7561C2E790
:100D980040F6E803D2E79DF81920002AD6D0039838
:100DA800034403F52573D1E70124B4E70024B2E72F
:100DB80010B5044601F0A4F9E06010BD43680BB912
:100DC8000020704710B5044601F09AF9E368C01A8C
:100DD8006368984201D8002010BD0120FCE738B5AF
:100DE8000446FFF7E5FF13212046FFF7E8FD10F062
:100DF800070F09D12046FFF7E1FF0028F3D00123B0
:100E080023724FF6FF7509E01E212046FFF7EDFD1E
:100E1800054601220B212046FFF796FD284638BDDE
:100E280070B504460E46154601228021FFF78CFD59
:100E38000122FF212046FFF787FD002211462046A8
:100E4800FFF782FD0622FF212046FFF77DFD832163
:100E58002046FFF7B4FD40F00402D2B283212046B9
:100E6800FFF772FD0722FF212046FFF76DFD0122E3
:100E780081212046FFF768FD012280212046FFF7E7
:100E880063FD6B2294212046FFF75EFD002283213B
:100E98002046FFF759FD2046FFF78AFF83212046A9
:100EA800FFF78DFD30B92046FFF788FF0028F5D001
:100EB80000203AE0012283212046FFF745FD9221D8
:100EC8002046FFF77CFD00F07F033370C0F3C710A6
:100ED800003018BF01202870002281212046FFF72A
:100EE80033FD0622FF212046FFF72EFD83212046F1
:100EF800FFF765FD00F0FB0283212046FFF724FD84
:100F08000122FF212046FFF71FFD01220021204674
:100F1800FFF71AFD0022FF212046FFF715FD0022EA
:100F280080212046FFF710FD012070BD10B5044652
:100F380041F001020021FFF707FD2046FFF738FFC7
:100F480013212046FFF73BFD10F0070F06D120467E
:100F5800FFF734FF0028F3D000200AE001220B211C
:100F68002046FFF7F1FC002211462046FFF7ECFC73
:100F7800012010BD70B582B004464378002B48D1DB
:100F8800002288212046FFF7DFFC0122802120462D
:100F9800FFF7DAFC0122FF212046FFF7D5FC0022EB
:100FA80011462046FFF7D0FC91212046FFF707FDA8
:100FB8002074012200212046FFF7C6FC0022FF21F1
:100FC8002046FFF7C1FC002280212046FFF7BCFC29
:100FD80060212046FFF7F3FC40F01202D2B26021F4
:100FE8002046FFF7B1FCB5EE000A2046FFF740FDAA
:100FF800FF2201212046FFF7A7FC0DF106020DF1A3
:1010080007012046FFF70CFF054668B9284602B0DD
:1010180070BD8921FFF7D3FC40F00102D2B28921CB
:101028002046FFF791FCABE706236A46B02120462D
:10103800FFF709FD0122FF212046FFF785FC00226A
:101048004F212046FFF780FC2C224E212046FFF737
:101058007BFC0022FF212046FFF776FCB422B62154
:101068002046FFF771FC9DF806301BB10C260023C3
:101078001D4611E00026FAE703F00701012202FAF3
:1010880001F102AA02EBD30010F8082C22EA0102AF
:1010980000F8082C0133DBB22F2B13D8B342EBD363
:1010A8009DF80720AA42E7D002AA02EBD30212F861
:1010B800082C03F007010A4112F0010FEAD00135AC
:1010C800EDB2E7E706236A46B0212046FFF7A6FC03
:1010D8000122FF212046FFF737FC00221146204657
:1010E800FFF732FC0022FF212046FFF72DFC0022EB
:1010F80009212046FFF728FC002210212046FFF78F
:1011080023FC002211212046FFF71EFC0122242186
:101118002046FFF719FCFF2225212046FFF714FC83
:10112800002275212046FFF70FFC0122FF212046EF
:10113800FFF70AFC2C224E212046FFF705FC00226F
:1011480048212046FFF700FC202230212046FFF7E7
:10115800FBFB0022FF212046FFF7F6FB0922302186
:101168002046FFF7F1FB002254212046FFF7ECFB55
:10117800042231212046FFF7E7FB032232212046D3
:10118800FFF7E2FB832240212046FFF7DDFB252203
:1011980046212046FFF7D8FB002260212046FFF7B2
:1011A800D3FB002227212046FFF7CEFB0622502141
:1011B8002046FFF7C9FB002251212046FFF7C4FB58
:1011C800962252212046FFF7BFFB082256212046CF
:1011D800FFF7BAFB302257212046FFF7B5FB002264
:1011E80061212046FFF7B0FB002262212046FFF76D
:1011F800ABFB002264212046FFF7A6FB00226521F5
:101208002046FFF7A1FBA02266212046FFF79CFBA2
:101218000122FF212046FFF797FB32222221204698
:10122800FFF792FB142247212046FFF78DFBFF2290
:1012380049212046FFF788FB00224A212046FFF774
:1012480083FB0022FF212046FFF77EFB0A227A213A
:101258002046FFF779FB00227B212046FFF774FB2D
:10126800212278212046FFF76FFB0122FF2120462B
:10127800FFF76AFB342223212046FFF765FB002293
:1012880042212046FFF760FBFF2244212046FFF75A
:101298005BFB262245212046FFF756FB0522462107
:1012A8002046FFF751FB402211462046FFF74CFB32
:1012B80006220E212046FFF747FB1A22202120464E
:1012C800FFF742FB402243212046FFF73DFB002267
:1012D800FF212046FFF738FB032234212046FFF781
:1012E80033FB442235212046FFF72EFB0122FF2144
:1012F8002046FFF729FB042231212046FFF724FB73
:1013080009224B212046FFF71FFB05224C212046CE
:10131800FFF71AFB04224D212046FFF715FB002298
:10132800FF212046FFF710FB002244212046FFF74B
:101338000BFB202245212046FFF706FB0822472108
:101348002046FFF701FB282248212046FFF7FCFA38
:10135800002267212046FFF7F7FA04227021204671
:10136800FFF7F2FA012271212046FFF7EDFAFE227B
:1013780072212046FFF7E8FA002276212046FFF77F
:10138800E3FA002277212046FFF7DEFA0122FF2147
:101398002046FFF7D9FA01220D212046FFF7D4FA9B
:1013A8000022FF212046FFF7CFFA012280212046A4
:1013B800FFF7CAFAF82201212046FFF7C5FA0122F1
:1013C800FF212046FFF7C0FA01228E212046FFF7B1
:1013D800BBFA012200212046FFF7B6FA0022FF21BE
:1013E8002046FFF7B1FA002280212046FFF7ACFA29
:1013F80004220A212046FFF7A7FA84212046FFF796
:10140800DEFA00F0EF0284212046FFF79DFA012260
:101418000B212046FFF798FA2046FFF729FC606168
:10142800E82201212046FFF78FFA61692046FFF77D
:101438006BFC012211462046FFF786FA4021204620
:10144800FFF774FD054600283FF4E0AD02220121B4
:101458002046FFF779FA00212046FFF767FD054689
:1014680000283FF4D3ADE82201212046FFF76CFAAB
:10147800CCE5F0B589B004460F4616465208013A45
:10148800D5B206A9FFF77AFB6A4606A92046FFF7F8
:10149800B9FB002F65D1A6F10C03062B00F21881C9
:1014A800DFE813F0070016014B0016015100160182
:1014B8005700182257212046FFF746FA08225621DE
:1014C8002046FFF741FA2A4650212046FFF73CFA0A
:1014D80031460498FFF702FC80B2FFF76FFB024623
:1014E80051212046FFF73FFA31460398FFF7F6FBF4
:1014F80083B2B3F5807F32D8C2B2013AD2B2462164
:101508002046FFF721FA61692046FFF7FDFB01211C
:101518002046FFF754FA0546022201212046FFF72C
:1015280013FA00212046FFF701FD2A460121204633
:10153800FFF70AFA012009B0F0BD302257212046F2
:10154800FFF702FABAE7402257212046FFF7FCF9D5
:10155800B4E7502257212046FFF7F6F9AEE7FF22FD
:10156800CDE7012F01D00020E5E7A6F10803062BFF
:1015780000F2B080DFE803F004AE40AE64AE88004D
:10158800102248212046FFF7DFF90822472120468C
:10159800FFF7DAF9022232212046FFF7D5F90C22AB
:1015A80030212046FFF7D0F90122FF212046FFF71E
:1015B800CBF9302211462046FFF7C6F90022FF2159
:1015C8002046FFF7C1F92A4670212046FFF7BCF9EB
:1015D80031460598FFF782FB80B29DF81B301BB19E
:1015E800BDF80630184480B2FFF7E8FA02467121C8
:1015F8002046FFF7B8F986E7282248212046FFF75A
:10160800A3F9082247212046FFF79EF90322322139
:101618002046FFF799F9092230212046FFF794F96F
:101628000122FF212046FFF78FF920223021204692
:10163800FFF78AF90022FF212046FFF785F9C2E764
:10164800382248212046FFF77FF908224721204603
:10165800FFF77AF9032232212046FFF775F90822AD
:1016680030212046FFF770F90122FF212046FFF7BD
:101678006BF9202230212046FFF766F90022FF216E
:101688002046FFF761F99EE7482211462046FFF7FA
:101698005BF9082247212046FFF756F90322322139
:1016A8002046FFF751F9072230212046FFF74CF971
:1016B8000122FF212046FFF747F92022302120464A
:1016C800FFF742F90022FF212046FFF73DF97AE7AC
:1016D800002030E700202EE710B582B06424009483
:1016E800013102F0F3F902B010BD10B582B06424E4
:1016F800009402F031F902B010BD00002DE9F04F5E
:101708008DB000240794089409940A940B940194CA
:10171800614B1A6B42F010021A631A6B02F0100246
:101728000192019A02941A6B42F004021A631A6B2E
:1017380002F004020292029A03941A6B42F08002A9
:101748001A631A6B02F080020392039A04941A6BCC
:1017580042F001021A631A6B02F001020492049A21
:1017680005941A6B42F002021A631A6B02F0020225
:101778000592059A06941A6B42F008021A631B6BCD
:1017880003F008030693069BDFF820812246082110
:10179800404600F033FE414F01221146384600F022
:1017A8002DFEDFF80CA122464FF21001504600F042
:1017B80025FE22464021384600F020FE384E2246BB
:1017C8008021304600F01AFE4FF00809CDF81C9031
:1017D8000125089509940A9407A9404600F02AFDB6
:1017E80041230793089509940A9407A9384600F0FD
:1017F80021FDCDF81C904FF00209CDF820900994F6
:101808000A944FF0050BCDF82CB007A9384600F024
:1018180011FD0795234F0897099407A9224800F05E
:1018280009FD042307930894099407A9304600F09A
:1018380001FD4FF480630793CDF8209009940A9432
:10184800CDF82CB007A9304600F0F4FC4FF2100395
:101858000793089509940A9407A9504600F0EAFCF2
:10186800202307930894099407A9504600F0E2FC46
:1018780080230793089509940A9407A9304600F035
:10188800D9FCCDF81C900897099407A9404600F0A8
:10189800D1FC0DB0BDE8F08F0038024000080240CE
:1018A8000004024000001210000002400010024034
:1018B800000C024008B50948094B0360094B436016
:1018C80000238360C3604FF48042026143618361F7
:1018D800C361036201F066FF08BD00BF500100202C
:1018E80000540040A086010008B50948094B036070
:1018F800094B436000238360C3604FF48042026158
:1019080043618361C361036201F04CFF08BD00BFFE
:10191800FC000020005C0040801A060008B5094859
:10192800094B03604FF40072426000238360C36078
:101938000261064A42618361C361036203F01AF8D7
:1019480008BD00BF88020020003C0040007701006D
:1019580008B50B480B4B03604FF4827343600023B8
:101968008360C360036143614FF400728261C361A5
:101978000362436283620A23C36203F00FFF08BD58
:10198800EC0100200030014030B587B000240294FB
:10199800039404940594009401940F4D0F4B2B600D
:1019A80040F247336B60AC6047F22F53EB602C6119
:1019B8008023AB61284604F097F84FF480530293D4
:1019C80002A9284604F0B5F800940194694628460F
:1019D80004F01CF907B030BDA40100200004004049
:1019E80008B50848084B03604FF4E133436000230F
:1019F8008360C36003610C2242618361C36104F0A8
:101A0800CAFA08BD440200200044004070B598B0EE
:101A1800302200210DEB020006F076FA002407942C
:101A2800089409940A940B940394049405940694D6
:101A38000194204B1A6C42F080521A641B6C03F01C
:101A480080530193019B02941B4B1A6842F4804215
:101A58001A601B6803F480430293029B01260C96CC
:101A68004FF480330D93022512954FF4800313939E
:101A7800082314934FF4A873159316950723179307
:101A88000CA803F06FFA0F230793089509944FF4F5
:101A9800A0530A934FF480530B93052107A803F032
:101AA800C3FC0396C0230493059503A803F092FD95
:101AB80018B070BD003802400070004080B500F0DA
:101AC800F9FAFFF7A3FFFFF719FEFFF7F3FEFFF799
:101AD80025FFFFF73DFF06F053F8FFF755FFFFF727
:101AE8007FFFFFF701FF4E4C00228021204600F0C7
:101AF80085FC022000F00AFB01228021204600F02C
:101B08007DFC022000F002FB04F5806400224021E5
:101B1800204600F073FC022000F0F8FA0122402170
:101B2800204600F06BFC022000F0F0FA3D4C204605
:101B3800FFF720FA04F11C052846FFF71BFA9FED72
:101B48003A8AB0EE480A2046FEF792FFB0EE480AFD
:101B58002846FEF78DFF122200212046FFF789FC58
:101B6800122200212846FFF784FC0E22012120467C
:101B7800FFF77FFC0E2201212846FFF77AFC2B4E47
:101B880031462046FFF7C0F831462846FFF7BCF833
:101B980000212046FEF7B4FF00212846FEF7B0FFDB
:101BA800234803F06AFE06F00BF8224B1A88DFF888
:101BB8009890A9F80020204CA4FB02135B091F4E43
:101BC8003370642505FB13231D4F3B70DFF87C80C1
:101BD8002B4601223146404604F00CFA2B460122DE
:101BE8003946404604F006FA164B1B88A9F800301F
:101BF800A4FB03246409347005FB14343C702B46A1
:101C080001223146404604F0F5F92B4601223946B7
:101C1800404604F0EFF9284600F078FAC3E700BF21
:101C28000004024000000020CDCCCC3D400D030054
:101C3800A4010020E80100201F85EB51E5010020E8
:101C4800E4010020EA010020840200204402002070
:101C58007047000000B583B0002100910C4B5A6C0E
:101C680042F480425A645A6C02F480420092009A0C
:101C780001911A6C42F080521A641B6C03F0805375
:101C88000193019B072000F055FA03B05DF804FBAF
:101C9800003802402DE9F0438BB0002305930693EA
:101CA80007930893099303683E4A934205D03E4A36
:101CB800934226D00BB0BDE8F083002500953B4C3D
:101CC800236B43F002032363236B03F002030093A7
:101CD800009B4FF410730593122306930123079377
:101CE8000423099305A9324800F0A4FA0195236C4E
:101CF80043F400132364236C03F400130193019B42
:101D0800D8E700250295294C236B43F0040323638D
:101D1800236B03F004030293029B0395236B43F0A8
:101D280001032363236B03F001030393039B4FF425
:101D3800007305934FF01209CDF818904FF0010881
:101D4800CDF81C80032708970426099605A9194889
:101D580000F070FA4FF480730593CDF81890CDF821
:101D68001C800897099605A9134800F063FA0495A2
:101D7800236C43F400032364236C03F400030493EB
:101D8800049B2A462946482000F0E6F9482000F03E
:101D980017FA2A462946492000F0DEF9492000F0C2
:101DA8000FFA87E700540040005C0040003802400A
:101DB80000040240000802400000024070B588B0EC
:101DC80000230393049305930693079302681E4B1D
:101DD8009A4201D008B070BD0024009403F5FE3388
:101DE8001A6C42F400421A641A6C02F4004200921F
:101DF800009A01941A6B42F001021A631A6B02F0FE
:101E080001020192019A02941A6B42F004021A63C9
:101E18001B6B03F004030293029B10230393022617
:101E280004960625079503A9084800F003FA4FF41D
:101E3800A4530393049605940694079503A90448AC
:101E480000F0F8F9C6E700BF003C0040000002407F
:101E58000008024000B589B000230393049305935A
:101E6800069307930268144B9A4202D009B05DF8B2
:101E780004FB0021019103F584335A6C42F480522B
:101E88005A645A6C02F480520192019A02911A6BB8
:101E980042F001021A631B6B03F001030293029BD9
:101EA800E0230393022304930523079303A903481C
:101EB80000F0C0F9DAE700BF00300140000002403E
:101EC80002680E4B9A4200D0704700B583B00021DB
:101ED800019103F50D331A6C42F002021A641B6C6F
:101EE80003F002030193019B0A461D2000F034F918
:101EF8001D2000F065F903B05DF804FB0004004004
:101F080010B588B0002303930493059306930793B1
:101F18000268184B9A4201D008B010BD0024019401
:101F280003F5FA331A6C42F400321A641A6C02F49C
:101F380000320192019A02941A6B42F001021A636C
:101F48001B6B03F001030293029B0C2303930223F0
:101F58000493032306930723079303A9064800F075
:101F680069F922462146262000F0F6F8262000F0DE
:101F780027F9D1E700440040000002407047FEE71F
:101F8800FEE7FEE7FEE770477047704708B500F0C8
:101F9800ABF808BD08B5094803F085FC4FF480414B
:101FA800074800F031FA0748FEF719FF064B18807A
:101FB8000648FEF714FF064B188008BDA401002050
:101FC800000C024000000020E80100201C00002056
:101FD800EA01002008B5024804F0DCF808BD00BF9B
:101FE8004402002008B5024800F015FF08BD00BFF4
:101FF800AC06002008B5024802F08CFB08BD00BF03
:10200800FC00002008B5024802F051FC08BD00BFE2
:10201800FC00002008B503460B4A126842B10A4A80
:10202800106803446A46934206D8074A136008BDFD
:10203800054A06491160F2E705F02CFF0C230360FE
:102048004FF0FF30F3E700BFE400002078090020DC
:10205800054BD3F8882042F47002C3F888204FF06B
:1020680000629A60704700BF00ED00E010B50446BA
:102078000E4B18784FF47A73B3FBF0F30C4A1068E0
:10208800B0FBF3F000F0AAF868B90F2C01D90120D1
:102098000AE0002221464FF0FF3000F05DF8034BC4
:1020A8005C60002000E0012010BD00BF3C00002063
:1020B8003800002008B50B4B1A6842F400721A6009
:1020C8001A6842F480621A601A6842F480721A60D0
:1020D800032000F02FF80020FFF7C8FFFFF7BAFD34
:1020E800002008BD003C0240034A1168034B1B78DE
:1020F8000B441360704700BFD00200203C00002052
:10210800014B1868704700BFD002002038B504465C
:10211800FFF7F6FF0546B4F1FF3F02D0044B1B78EA
:102128001C44FFF7EDFF401BA042FAD338BD00BFA7
:102138003C000020074AD36823F4E0631B041B0C0F
:10214800000200F4E060184340F0BF6040F4003043
:10215800D060704700ED00E030B4174BDB68C3F384
:102168000223C3F10704042C28BF04241D1D062DD7
:1021780018D9033B4FF0FF3505FA04F421EA0401AE
:10218800994005FA03F322EA0303194300280BDBFD
:102198000901C9B200F1604000F5614080F8001300
:1021A80030BC70470023E5E700F00F000901C9B211
:1021B800024B1954F4E700BF00ED00E014ED00E015
:1021C800002807DB00F01F02400901239340024A60
:1021D80042F82030704700BF00E100E00138B0F15C
:1021E800807F0AD2064B5860064AF02182F82310F5
:1021F8000020986007221A6070470120704700BFCE
:1022080010E000E000ED00E090F83530DBB2022B82
:1022180003D08023436501207047052380F83530BB
:102228000268136823F0010313600020704790F8D8
:102238003500704700230F2B00F2D780F0B583B02C
:1022480039E0072200E00022AA403A430234674DF1
:1022580045F82420664A1468F24302EA04054F68E8
:1022680017F4803F01D046EA0405614C2560646894
:1022780002EA04054F6817F4003F01D046EA040556
:102288005B4C6560A46802EA04054F6817F4801F78
:1022980001D046EA0405564CA560E46822404D6822
:1022A80015F4001F01D046EA0402514CE2600133E4
:1022B8000F2B00F2988001229A400C6804EA02066B
:1022C800B242F4D14C68651E012D03D9112C01D0FE
:1022D800122C12D185685F000324BC4025EA04054E
:1022E800CC68BC402C438460456825EA02054C68EC
:1022F800C4F300129A402A434260C4685F00032274
:10230800BA40D24314408D68BD402543C5604C682F
:10231800022C01D0122C13D1DD08083550F825E025
:1023280003F007044FEA840C0F2404FA0CF42EEA95
:10233800040E0C6904FA0CF444EA0E0440F8254033
:10234800046822404C6804F00304BC402243026045
:102358004A6812F0805FAAD000220192254A546C84
:1023680044F480445464526C02F480420192019A0D
:102378009C08A51C1D4A52F8257003F0030295001D
:102388000F22AA4027EA02071B4A90423FF45BAF9C
:1023980002F5806290421AD002F58062904218D00D
:1023A80002F58062904216D002F58062904214D005
:1023B80002F58062904212D002F58062904210D0FD
:1023C80002F5806290423FF43CAF08223CE70122CC
:1023D8003AE7022238E7032236E7042234E70522E7
:1023E80032E7062230E703B0F0BD704700380140FD
:1023F800003C0140003802400000024012B90904C4
:102408008161704781617047436931EA030301D0F4
:10241800816170470904816170470000F8B506685A
:10242800346A04F00F07C4F34343C4F30A14022BBD
:102438002ED16CB307EB8702D3000344596C39B330
:1024480005462246304604F003F8BA003A44D30061
:102458002B445A6C22445A64DA6C2244DA6406EB40
:102468004713D3F810150B4A0A408AB1D3F8002550
:1024780022F0804242F00042C3F80025BB00D9197F
:10248800CA002A4492F8503083F0010382F8503091
:10249800F8BD00BF0000F81FF0B585B09DF82850C2
:1024A8009DF82C60BDF8307090F8B842012C41D0EE
:1024B800012480F8B8424FEA810C8C444FEACC04DE
:1024C80004444FF0000C84F83DC084F83830A4F878
:1024D800407084F8391084F83F6002F07F0C84F86B
:1024E8003AC012F0800F1BD101EB810C4FEACC04EB
:1024F80004444FF0000C84F83BC0044601EB810C07
:102508004FEACC00204480F83C5002970196009591
:10251800206804F0A9F8002384F8B83205B0F0BDAB
:1025280001EB810C4FEACC0404444FF0010C84F811
:102538003BC0E2E70220F1E790F8B832012B0BD05C
:1025480010B50446012380F8B832006804F015F984
:10255800002084F8B80210BD02207047002845D03A
:10256800F0B58BB00646046890F8B932002B38D025
:10257800032386F8B932E36B13F4807F01D100237B
:102588003361306803F00BFF344654F810CB6D46C6
:102598000FCC0FC50FCC0FC594E8030085E80300E6
:1025A800371D97E80E00604603F0AEFE0121306843
:1025B80003F0FBFE344654F810CB6D460FCC0FC524
:1025C8000FCC0FC594E8030085E8030097E80E00D8
:1025D800604603F0BBFF012386F8B93200200BB038
:1025E800F0BD80F8B83205F0F3FAC1E70120704772
:1025F800F8B59DF81870BDF820608D000D44EC000A
:10260800044484F83B2084F83F308FB98D000D4492
:10261800EC000444032584F842509DF8245084F8C3
:102628003D50032B00F29680DFE803F00A8D2F5E01
:1026380001EB8105EC000444022584F84250F0E7E0
:10264800012F40F08780002A40F0848036B901EBE2
:102658008102D3000344012283F8512001EB810257
:10266800D300034493F851303BB901EB8102D30006
:102678000344002283F842206CE001EB8102D3007E
:102688000344022283F8422064E0B2B901EB8102DC
:10269800D300034493F851303BB901EB8102D300D6
:1026A8000344002283F8422054E001EB8102D30066
:1026B8000344022283F842204CE001EB8102D3005C
:1026C800034493F850303BB901EB8102D300034433
:1026D800002283F842203DE001EB8102D30003444D
:1026E800022283F8422035E0B2B901EB8102D3001F
:1026F800034493F851303BB901EB8102D300034402
:10270800002283F8422025E001EB8102D300034434
:10271800022283F842201DE001EB8102D30003442A
:1027280093F850303BB901EB8102D30003440022F7
:1027380083F842200EE001EB8102D3000344022219
:1027480083F8422006E001EB8102D3000344002213
:1027580083F842208A005418E3000344079C5C6411
:102768009E64002483F85C40DC6483F8391083F8A5
:102778005D401144CB0003F13801027C014400683C
:1027880004F076F8F8BD30B583B005460468D4F88F
:1027980040340193D4F840340093009B23F02E0377
:1027A8000093019B13F0020F07D0019B13F0010F58
:1027B80025D1009B43F002030093019B13F0080FFF
:1027C80010D0009B43F008030093019B13F0040F03
:1027D8002DD0AB69022B15D0EB68012B22D02846EF
:1027E80005F055FA019B13F0200F03D0009B43F02E
:1027F80020030093009BC4F8403403B030BD05F0BB
:1028080039FAD6E7019B03F4C023B3F5802F04D02F
:102818000121286803F038FEE1E70221286803F067
:1028280033FEDCE74EF66022C4F80424D7E72846D6
:1028380005F033FAD6E7F8B506460D46076807EB04
:10284800411707F5A064A36813F0040F40D00423D0
:10285800A360E36843F00203E360A36813F4007F16
:1028680040F08280A36813F0010F00F0B080336954
:102878004BB1AA002A44D30033449A6C2169C1F3AE
:102888001201521ADA64AA002A44D30033440122FE
:1028980083F85D2000219965A26093F83F30002BF2
:1028A8006ED0022B6CD0032B7FD0012B72D1AA00E3
:1028B8002A44D3003344012283F85C2093F8501053
:1028C800514083F850102946304605F0DFF961E0A1
:1028D800A36813F4807F06D1A36813F0200F14D0E7
:1028E8002023A360B9E74FF48073A36001EB810252
:1028F800D3000344072283F85D20E36843F0020312
:10290800E360006803F039FFA7E7A36813F0080F36
:1029180017D1A36813F4806F9FD0E36843F00203D4
:10292800E360006803F029FF1023A36005EB85022C
:10293800D3003344082283F85D204FF48063A360FA
:102948008BE7E36843F00203E36001EB8102D30005
:102958000344052283F85D201023A3600823A360A5
:10296800006803F00AFF78E7E36843F00203E360D6
:102978002946306803F001FF4FF40073A36013E0A9
:10298800E36843F00203E3602946306803F0F5FE8C
:102998001023A360AB005919CA00324492F8503092
:1029A80083F0010382F85030F8BDD7F8003543F0C2
:1029B8000053C7F8003505EB8502D30033440122E4
:1029C80083F85C202946304605F060F9E2E7A36801
:1029D80013F0020F6FD0E36823F00203E36005EB06
:1029E8008502D300334493F85D30012B14D0052BB6
:1029F80026D0062B2CD0082B2AD0032B4BD0072B04
:102A080011D1AA002A44D30033449A6D01329A6541
:102A1800042283F85C2006E005EB8502D3003344EA
:102A2800012283F85C200223A36005EB8502D30012
:102A3800334493F85C202946304605F027F9B3E77C
:102A480005EB8502D3003344052283F85C20EAE7CE
:102A5800AA002A44D30033449A6D01329A65032AA6
:102A680011D9AA002A44D300334400229A650422CB
:102A780083F85C20D7F8003523F0804343F0004307
:102A8800C7F80035CFE705EB8502D30033440222AF
:102A980083F85C20EEE705EB8502D300334402227D
:102AA80083F85C20D7F8003523F0804343F00043D7
:102AB800C7F80035B7E7A36813F0800F1AD1A368E9
:102AC80013F0100F3FF470AF05EB8502D3003344C9
:102AD80093F83F30032B25D00BB1022B07D105EB20
:102AE8008502D300334400229A6533694BB310231F
:102AF800A36059E7E36843F00203E360AB005919A8
:102B0800CA003244916D013191652B44DA00324498
:102B1800062382F85D302946306803F02EFE8023B4
:102B2800A36041E705EB8502D300334400229A6590
:102B3800E36843F00203E3602946306803F01DFEB2
:102B4800D5E705EB8502D3003344032283F85D20E3
:102B5800E36843F00203E3602946306803F00DFEA2
:102B6800C5E7F8B5036803EB411303F5A064A26851
:102B780012F0040F24D10E460546A26812F0200F69
:102B880025D02023A36001EB8102D3001A46034419
:102B980093F83D30012B19D18B000244002182F8B3
:102BA8003D103344DA000244022382F85C30E368C3
:102BB80043F00203E3603146006803F0DEFD05E000
:102BC8000423A360E36843F00203E360F8BDA2684E
:102BD80012F0400F34D1A26812F4007F4AD1A268E3
:102BE80012F0010F51D1A26812F0080F62D1A26849
:102BF80012F0100F6FD08A000A44D3000344002259
:102C08009A65032283F85D2093F83D306BB901EB98
:102C18008102D300034493F83C3033B901EB8102BD
:102C2800D3000344012283F83D20E36843F0020304
:102C3800E3603146286803F0A0FD1023A360C5E7D0
:102C48008B005918CA000244042182F85D10012142
:102C580082F83D103344DA00024400239365E368A8
:102C680043F00203E3603146006803F086FD402329
:102C7800A360ABE7E36843F00203E360006803F096
:102C88007CFD4FF40073A360A0E78F007A18D3008F
:102C9800034400229A65E36843F00203E360006896
:102CA80003F06BFD0123A360B919C800284480F81C
:102CB8005D308BE70823A360E36843F00203E36019
:102CC800006803F05AFD06EB8601C8002844052376
:102CD80080F85D307AE7A26812F0800F39D1A268D7
:102CE80012F4806F46D1A26812F0020F3FF46EAF63
:102CF800E26822F00202E26001EB8101CA0011469B
:102D0800024492F85D20012A48D0032A5AD0042AA6
:102D18006CD0052A72D0062A01D0082A59D1B100F0
:102D28003144CA002A44916D0131916503296BD958
:102D3800282202FB065200219165042182F85C10CA
:102D4800D3F8002522F0804242F00042C3F8002563
:102D58003FE0E36843F00203E360006803F00DFD21
:102D680006EB8601CB002B44062283F85D208023E6
:102D7800A3602BE7E36843F00203E360006803F015
:102D8800FCFC1023A3604FF48063A36006EB86016C
:102D9800CB002B44082283F85D2017E70B46034439
:102DA800012283F85C2093F83F30023BDBB2934268
:102DB8000FD80B46034493F8512082F0010283F8A0
:102DC800512006E006EB8602D3000344022283F872
:102DD8005C200223A36006EB8602D3002B4493F801
:102DE8005C203146284604F051FFEFE606EB8602E8
:102DF800D3000344022283F85C20EAE7282303FB7C
:102E0800060383F85C20E4E7282202FB065202212D
:102E180082F85C1094E7F8B504460568284603F084
:102E28002FFB012800D0F8BD206803F025FB0028FF
:102E3800F9D0206803F020FB10F4001F03D02368AA
:102E48004FF400125A61206803F016FB10F4801F3B
:102E580003D023684FF480125A61206803F00CFBFA
:102E680010F0806F03D023684FF080625A612068A9
:102E780003F002FB10F0020F02D0236802225A610D
:102E8800206803F0F9FA10F0005F08D023684FF0CB
:102E980000525A61D5F8403413F0010F25D020684C
:102EA80003F0EAFA10F0807F27D1206803F0E4FAF3
:102EB80010F0080F25D1206803F0DEFA10F0007F2B
:102EC80026D1206803F0D8FA10F0100FABD0226892
:102ED800936923F0100393612046FFF79FFA226855
:102EE800936943F0100393619DE7204604F0C8FE00
:102EF8000121206803F0C8FAD1E72046FFF743FC18
:102F0800D3E7204604F0B0FE236808225A61D2E7CE
:102F1800206803F02DFC0746002604E0F1B22046A5
:102F2800FFF71FFE0136A368B34212D906F00F035C
:102F380027FA03F313F0010FF4D005EB4613D3F887
:102F4800003513F4004FE9D0F1B22046FFF773FCC7
:102F5800E8E723684FF000725A61B2E738B590F895
:102F6800B832012B0ED00446012580F8B85200680B
:102F780003F00FFA2946206803F0C5FA002084F808
:102F8800B80238BD0220FCE790F8B832012B0BD00C
:102F980010B50446012380F8B832006803F014FD28
:102FA800002084F8B80210BD0220704708B50068F8
:102FB80003F08AFA08BD01EB8101CB00184490F8B0
:102FC8005C00704701EB8101CB001844C06C70476E
:102FD80008B5006803F043FB08BD08B5006803F0B6
:102FE80033FB08BD90F83E30DBB2402B0AD00369B2
:102FF800B3F5804F15D0036D002B34D0036D012B32
:103008003BD07047036D2BB9436C026803F0FE0395
:1030180013617047436C026843F00103DBB213612C
:10302800704790F83D30DBB2212B0FD0436C02681B
:1030380043F00103DBB21361436B6BB1DB6B5BB134
:103048000268536843F4006353607047436C026836
:1030580003F0FE031361EFE7836B002BD1D0DB6B2A
:10306800002BEDD1CDE7436CC3F3C813026803F01E
:10307800060343F0F00313617047436CC3F3C813AE
:10308800026803F0060343F0F1031361B9E7436CE8
:103098000268DBB21361436B3BB1DB6B4BB1026877
:1030A800536843F4006353607047826B002AF4D17D
:1030B800FAE7836BDB6B002BF1D1F5E710B48BB02B
:1030C80090F83E30DAB2C16A046B90F83D30DBB25A
:1030D800222B0BD00023099303685A6909929B6934
:1030E8000993099B0BB05DF8044B7047036D0BB94E
:1030F800402A17D0036D1BB90369B3F5404F19D0A7
:10310800438D9BB2002B25D1029303685A69029222
:103118009A690292029A1A6842F400721A600023AD
:103128000365DFE7009303685A6900929B6900937F
:10313800009BD7E70023019303685A6901929A69B3
:103148000192019A1A6842F480721A60036D013381
:103158000365C7E7438D9BB2012B25D0438D9BB2F6
:10316800022B7BD00268136843F480631360036802
:103178005A6812F4006F0ED011F5803F07D001296C
:1031880005D0082903D0102901D0202903D15A6875
:1031980042F480525A600023089303685A690892DF
:1031A8009B690893089BBAE711F5803F11D008295D
:1031B80034D0202932D0122C2ED0042940D0022914
:1031C8003ED010293CD00268136823F48063136052
:1031D8003BE00268136823F48063136003685A684D
:1031E80012F4006F0CD01A6822F480621A6000236F
:1031F800039303685A6903929B690393039B8EE7C1
:10320800002204925A6904929A690492049A1A68EC
:1032180042F400721A6082E70129CED0026813686E
:1032280023F4806313600023069303685A690692A7
:103238009A690692069A1A6842F400721A606EE752
:103248000268136843F480631360002305930368DE
:103258005A6905929B690593059B60E704290ED07E
:1032680002290CD010290AD00268136823F480635D
:1032780013600268136843F40063136004E0026893
:10328800136843F48063136003685A6812F4006F8C
:103298000ED011F5803F07D0012905D0082903D0A9
:1032A800102901D0202903D15A6842F480525A606B
:1032B8000023079303685A6907929B690793079B42
:1032C8002DE7438D9BB253B1426A036812781A61A5
:1032D800436A01334362438D013B9BB24385704788
:1032E800438D9BB253B103681A69436A1A70436AE3
:1032F80001334362438D013B9BB243857047000015
:1033080082B0002301930E4B1B68DB080D4AA2FB19
:1033180003231B0A03EB83030193019B013B0193E6
:10332800019B33B103681B6813F4007FF5D10020BB
:1033380004E0036C43F020030364012002B07047EB
:103348003800002089B5F81403685A6912F4806FB0
:1033580011D06FF480625A6100230363202280F841
:103368003D2080F83E30026C42F00402026480F88E
:103378003C300120704700207047C36AB3F52A0F1C
:1033880004D0C36AB3F12A4F03D070470123C36244
:1033980070470823C362F8E7F8B506460C46174697
:1033A8001D4622E0FEF7ACFE069BC01AA84200D8D4
:1033B800DDB900233363202286F83D2086F83E30AD
:1033C800326C42F02002326486F83C3001201AE068
:1033D80033685B6924EA03039BB2B3FA83F35B099E
:1033E8009F420FD1B5F1FF3FDCD1C4F30743012B56
:1033F800EED033689B6924EA03039BB2B3FA83F3E4
:103408005B09EDE70020F8BDF8B504460D46164601
:103418001F463CE01A6842F400721A6023686FF491
:1034280080625A6100232363202284F83D2084F8B7
:103438003E30226C42F00402226484F83C300120C1
:1034480033E0FEF75DFEC01BB04200D8FEB9002392
:103458002363202284F83D2084F83E30226C42F019
:103468002002226484F83C3001201EE023685B6956
:1034780025EA03039BB2003318BF0123A3B12368D5
:103488005A6912F4806FC5D1B6F1FF3FD9D1C5F39F
:103498000743012BEAD023689B6925EA03039BB203
:1034A800003318BF0123E9E70020F8BDF0B583B069
:1034B80004460F4615461E46C36A082B0DD0012B3D
:1034C8000BD013F5803F08D0036B122B0AD102688A
:1034D800136843F48073136004E02268136843F4AC
:1034E8008073136000962B4600224FF0011120468E
:1034F800FFF752FF58B123681B6813F4807F2BD065
:103508004FF4007323640323184603B0F0BD236906
:10351800B3F5804F0ED1236807F0FE071F613346CD
:103528002A460F492046FFF76FFF03460028EBD0D5
:103538000123E9E7FB11226803F0060343F0F003D7
:10354800136133462A4607492046FFF75DFF28B92D
:103558002368FFB21F61E2E70323D5E70123D3E71E
:1035680002000100080001002DE9F04184B0044682
:103578000D4616461F46C26A01680B6843F480630D
:103588000B60082A0DD0012A0BD012F5803F08D015
:10359800036B112B0AD10268136843F4807313601C
:1035A80004E02268136843F480731360009733467D
:1035B80000224FF001112046FFF7EEFE60B12368AC
:1035C8001B6813F4807F5BD04FF4007323640323DC
:1035D800184604B0BDE8F0812369B3F5804F0FD1D8
:1035E800236845F00105EDB21D613B463246264988
:1035F8002046FFF709FF03460028E9D00123E7E743
:103608004FEAE51808F00608236848F0F0021A6146
:103618003B4632461D492046FFF7F6FE08B1012316
:10362800D6E72368EDB21D613B463246164920466F
:10363800FFF7EAFE08B10123CAE7002203922368D4
:1036480059690391996903910399196841F4807143
:103658001960009733464FF001112046FFF79CFE92
:1036680048B123681B6813F4807F0BD04FF40073B4
:1036780023640323ACE7226848F0F1031361B4E73D
:103688000323A5E70323A3E70200010008000100C4
:1036980070B504460D46164623685B6913F0800F23
:1036A8001CD12046FFF750FED0B9B5F1FF3FF3D04B
:1036B800FEF726FD801BA84201D8002DECD100237F
:1036C8002363202284F83D2084F83E30226C42F0A7
:1036D8002002226484F83C30012000E0002070BD04
:1036E8000120FCE770B504460D46164623685B6961
:1036F80013F0040F1CD12046FFF726FED0B9B5F110
:10370800FF3FF3D0FEF7FCFC801BA84201D8002D38
:10371800ECD100232363202284F83D2084F83E3036
:10372800226C42F02002226484F83C30012000E040
:10373800002070BD0120FCE770B505460C46164612
:103748002B685A6912F0400F29D15A6912F0100FEC
:1037580015D1FEF7D5FC801BA04201D8002CEFD173
:1037680000232B63202285F83D2085F83E302A6C03
:1037780042F020022A6485F83C30012070BD6FF0C9
:1037880010025A6100232B63202285F83D2085F81A
:103798003E302A6C2A6485F83C300120EEE7002090
:1037A800ECE70000002800F0C880F8B5044690F85F
:1037B8003D30002B75D0242384F83D3022681368EF
:1037C80023F0010313602268136843F40043136075
:1037D8002268136823F40043136001F0DBFE62687B
:1037E800584B9A4262D8584B98428CBF0023012309
:1037F800002B40F0A480554BA3FB00239B0C2168B1
:103808004A6822F03F021A434A6025682A6A22F071
:103818003F0266684B498E424ED8013313432B62F0
:103828002568E96921F44F4121F0FF016368454AA1
:1038380093424BD801385B00B0FBF3F30133C3F379
:103848000B03042B38BF04230B43EB6121680B687F
:1038580023F0C003E269206A024313430B60216826
:103868008B6823F4034323F0FF032269E0680243D3
:1038780013438B602168CB6823F0FF036269A0695A
:1038880002431343CB602268136843F001031360BB
:1038980000202064202384F83D30206384F83E0013
:1038A800F8BD80F83C30FEF7F5F984E7284B9842DC
:1038B8008CBF002301239BE74FF4967101FB03F3B0
:1038C8002449A1FB03139B090133A7E7A268BAB9EE
:1038D800461E03EB4307B6FBF7F60136C6F30B06A5
:1038E800B6FA86F6760936BBC2B9013803EB43034C
:1038F800B0FBF3F30133C3F30B0242F40043A3E735
:10390800461E03EB830707EB8707B6FBF7F601367E
:10391800C6F30B06B6FA86F67609E4E7013803EB38
:10392800830303EB8303B0FBF3F20132C2F30B0210
:1039380042F4404388E7012386E7012070470120CD
:10394800AEE700BFA08601007F841E0083DE1B4314
:10395800FF083D00D34D62102DE9F04184B00446C4
:103968000E4690461F46FEF7CBFB94F83D30DBB27F
:10397800202B04D00226304604B0BDE8F08105466D
:103988000090192301224F492046FFF705FD002822
:1039980040F0918094F83C30012B00F08E80012398
:1039A80084F83C3023681A6812F0010F03D11A68B2
:1039B80042F001021A602268136823F4006313605E
:1039C800212384F83D30102384F83E3000232364FB
:1039D800C4F824806785638D23853B4BE3622B46BF
:1039E8000A9A31462046FFF761FD0646002866D14F
:1039F8000023039323685A6903929B690393039BEB
:103A080012E0236C042B01D00126B4E72268136866
:103A180043F4007313600126ADE72A460A9920464D
:103A2800FFF760FE00282CD1238D002B35D02A46C5
:103A38000A992046FFF72CFE0028E2D1626A236823
:103A480012781A61616A4B1C6362638D013B9BB2F9
:103A58006385238D013B9BB223852268506910F052
:103A6800040FDAD0002BD8D04B781361636A013386
:103A78006362638D013B9BB26385238D013B238584
:103A8800CBE7236C042B01D0012674E72268136866
:103A980043F40073136001266DE72268136843F44A
:103AA80000731360202384F83D30002384F83E30EF
:103AB80084F83C305FE702265DE702265BE70126D3
:103AC80059E700BF020010000000FFFF2DE9F04198
:103AD80086B004460E4690461F46FEF711FB94F842
:103AE8003D30DBB2202B04D00226304606B0BDE8BC
:103AF800F08105460090192301229E492046FFF7D0
:103B08004BFC002840F0348194F83C30012B00F045
:103B18003781012384F83C3023681A6812F0010FBA
:103B280003D11A6842F001021A602268136823F46C
:103B380000631360222384F83D30102384F83E305C
:103B480000232364C4F824806785638D23858A4B0A
:103B5800E3622B460C9A31462046FFF705FD0646E0
:103B6800002840F00F81238D5BB9029323685A69BE
:103B780002929A690292029A1A6842F400721A60D2
:103B880077E0012B0FD0022B1FD02268136843F473
:103B9800806313600023059323685A6905929B6923
:103BA8000593059B65E02268136823F4806313601E
:103BB8000023039323685A6903929A690392039A2C
:103BC8001A6842F400721A6053E02268136823F4FA
:103BD800806313602268136843F400631360002352
:103BE800049323685A6904929B690493049B40E0F8
:103BF8002A460C992046FFF79FFD002840F0C48014
:103C080023681A69636A1A70636A01336362238DD1
:103C1800013B2385638D013B9BB2638529E00095B9
:103C28000C9B002255492046FFF7B6FB002840F0C0
:103C3800AD802268136843F40073136023681A691F
:103C4800636A1A70626A531C6362238D013B238581
:103C5800638D013B9BB2638523681B695370636A5C
:103C680001336362238D013B2385638D013B9BB246
:103C78006385238D002B72D0032B49D8012BB7D035
:103C8800022BCCD000950C9B00223C492046FFF724
:103C980083FB00287CD12268136823F480631360B7
:103CA80023681A69636A1A70636A01336362238D31
:103CB800013B2385638D013B9BB2638500950C9B7B
:103CC80000222E492046FFF767FB002862D12268B0
:103CD800136843F40073136023681A69636A1A70DF
:103CE800626A531C6362238D013B2385638D013B0C
:103CF8009BB2638523681B695370636A01336362EF
:103D0800238D013B2385638D013B9BB26385B0E71F
:103D18002A460C992046FFF70FFD00283CD123685E
:103D28001A69636A1A70626A531C6362238D013BC5
:103D38002385638D013B9BB263852368596911F024
:103D4800040F96D01B695370636A01336362238D35
:103D5800013B2385638D013B9BB2638589E7202363
:103D680084F83D30002384F83E3084F83C30BCE6CB
:103D78000226BAE6020010000000FFFF040001005E
:103D88000226B2E60126B0E60126AEE60126ACE63A
:103D98000126AAE60126A8E60126A6E6704708B588
:103DA800C26A90F83D30DBB2212B00D008BD438DAC
:103DB8009BB2D3B9082A04D0202A02D012F5803F3A
:103DC8001FD10268536823F4E063536002681368E4
:103DD80043F40073136000230363202280F83D201E
:103DE80080F83E30FFF7DAFFE0E7426A03681278AE
:103DF8001A61436A01334362438D013B9BB2438599
:103E0800D4E70268536823F4E06353601123036323
:103E1800002380F83E30202380F83D30FFF7BEFFB6
:103E2800C4E77047704708B590F83D30DAB2438D63
:103E38009BB27BB1416A036809781961436A01330F
:103E48004362438D013B9BB24385438D9BB20BB9C3
:103E5800292A00D008BD0268536823F480635360A0
:103E680021230363282380F83D30FFF7DBFFF1E7C8
:103E7800704708B590F83D30DAB2438D9BB27BB1FC
:103E880003681969436A1970436A01334362438DB1
:103E9800013B9BB24385438D9BB20BB92A2A00D0C4
:103EA80008BD0268536823F48063536022230363C8
:103EB800282380F83D30FFF7DBFFF1E7704708B5AE
:103EC80090F83D3003F02803282B07D003686FF0E3
:103ED80002025A61002380F83C3008BD026853682A
:103EE80023F48063536011F0040F0BD0002311F00A
:103EF800800F09D18289002180F83C101946FFF70C
:103F0800DDFFEAE70123F2E7028BF4E770470000E0
:103F180008B590F83D30DBB2C26A082A01D0202AE1
:103F280001D1282B06D0212B1ED003686FF48062A4
:103F38005A6108BD1A4BC3620268536823F4E063F0
:103F4800536003686FF480625A610268136823F44F
:103F58008063136000230363202280F83D2080F8EB
:103F68003E30FFF7D3FFE4E70D4BC3622123036321
:103F7800202380F83D30002380F83E3002685368E3
:103F880023F4E063536003686FF480625A61026847
:103F9800136823F480631360FFF744FFC9E700BF89
:103FA8000000FFFF704708B590F83D30026D9AB9E0
:103FB800C36C012B08D0836CC3F307230268136119
:103FC800036D0133036508BD836C0268DBB21361BE
:103FD800036D02330365F6E7DBB2026D012A23D0D5
:103FE800026D022AEFD1222B26D0428D92B20AB15D
:103FF800212B27D0428D92B2002AE4D1212BE2D185
:104008000268536823F4E06353600268136843F45A
:104018000073136000230363202280F83D2080F89A
:104028003E30FFF7BFFFCEE7836C0268DBB2136157
:10403800036D01330365C6E70268136843F48073B0
:104048001360C0E7426A036812781A61436A013351
:104058004362438D013B9BB24385B4E710B590F8AA
:104068003D30DBB290F83E20D2B2C46A018D09B966
:10407800212B04D0212B3BD0402A37D010BD082C4F
:1040880004D0202C02D014F5803F19D1026853685F
:1040980023F4E06353600268136843F40073136009
:1040A80000230363202380F83D3090F83E30DBB2D4
:1040B800402B15D0002380F83E30FFF76FFEDDE778
:1040C8000268536823F4E0635360112303630023F9
:1040D80080F83E30202380F83D30FFF75FFECDE7C3
:1040E800002380F83E30FFF75DFFC7E7222BC5D1DC
:1040F800438D9BB283B190F83E30DBB2402B11D098
:10410800426A036812781A61436A01334362438D35
:10411800013B9BB24385B1E70268536823F480638F
:104128005360ABE7FFF73FFFA8E7704708B5C26ADF
:10413800438D9BB2042B13D0438D9BB2032B20D00D
:10414800438D9BB2022B36D003681A69436A1A70F2
:10415800436A01334362438D013B9BB243850FE0C1
:104168000268536823F48063536003681A69436ADA
:104178001A70436A01334362438D013B9BB2438506
:1041880008BD01684B6823F480634B60042A06D09D
:10419800022A04D00268136823F48063136003685A
:1041A8001A69436A1A70436A01334362438D013BBB
:1041B8009BB24385E4E7012A0BD0102A09D0042AD0
:1041C80036D0022A34D00268136843F400731360AF
:1041D80004E00268136823F48063136003681A69B3
:1041E800436A1A70426A531C4362438D013B9BB277
:1041F800438503681B695370436A01334362438DE7
:10420800013B9BB243850268536823F440735360B3
:10421800202380F83D3090F83E30DBB2402B0DD0A3
:10422800002380F83E3012230363FFF7FAFDA7E767
:104238000268136843F480631360CFE7002380F8B3
:104248003E300363FFF771FF9AE7704790F83D30FF
:10425800DBB2222B00D07047438D9BB2032B14D9BD
:1042680003681A69436A1A70436A01334362438DCB
:10427800013B9BB24385438D9BB2032BEBD1026874
:10428800536823F4806353607047C26A022AE2D0FD
:10429800012BE0D810B50446FFF732F868BB226856
:1042A800136823F4806313602268536823F4E0637F
:1042B800536023681A69636A1A70636A0133636218
:1042C800638D013B9BB26385202384F83D3094F8CD
:1042D8003E30DBB2402B08D0002384F83E30122356
:1042E80023632046FFF79DFD10BD002384F83E3070
:1042F80023632046FFF719FFF6E72268536823F483
:10430800E063536023681A69636A1A70636A013349
:104318006362638D013B9BB26385202384F83D3043
:10432800002384F83E302046FFF78FFFDCE7704714
:1043380000B583B000230193806B90F83D20D2B282
:10434800324B1B68DB083249A1FB03131B0A03EB42
:104358008303C3EBC3030193019B43B1019B013B5F
:10436800019303681B6813F4007FF5D103E0036C25
:1043780043F020030364436B0BB10021D963836BC3
:104388000BB10021D96301680B6823F480630B60CB
:1043980000234385436B0BB100211965836B0BB177
:1043A8000021196501680B6823F001030B6090F880
:1043B8003D30DBB2602B0ED002F02802282A14D040
:1043C800202380F83D30002380F83E30FFF73DFF82
:1043D80003B05DF804FB202380F83D30002380F80B
:1043E8003E300364FFF7A3FFF2E70268136843F067
:1043F800010313600268136843F4806313600023A9
:104408000363282380F83D30E0E700BF3800002030
:1044180089B5F81410B5044690F83D30DBB290F831
:104428003E20D2B2102A36D0402A34D003F02802D7
:10443800282A38D02268526812F4006F07D1602BFE
:1044480005D0202384F83D30002384F83E30002333
:10445800236323685A6812F4006F48D05A6822F41C
:1044680000625A60626B92F83530DBB2012B20D0C3
:10447800444B1365606BFDF7C7FE002849D02268DE
:10448800136823F001031360202384F83D30606B28
:10449800036D98473DE0222BC8D121680A6822F4B1
:1044A80000620A60C2E700232363282384F83D30B2
:1044B800CFE7A36B334A1A65A06BFDF7A5FE40B39F
:1044C80023685A6912F0400F05D01A69636A1A7096
:1044D800636A013363622268136823F0010313607F
:1044E800202384F83D30A06B036D984711E094F8C1
:1044F8003D20D2B2602A1FD05A6912F0400F05D071
:104508001A69636A1A70636A013363622046FFF7A7
:104518009CFE236C13F00F0F04D02268536823F419
:10452800E063536094F83D30DBB2226C12F0040F64
:1045380001D0282B18D010BD202284F83D2000225D
:1045480022645A6912F0400F05D01A69636A1A701A
:10455800636A013363622268136823F001031360FE
:104568002046FFF7E4FED4E7074BE362002323630A
:10457800202284F83D2084F83E302046FFF7C6FC10
:10458800D9E700BF394300080000FFFF30B583B00A
:10459800044690F83D50EDB20268536823F4E06396
:1045A80053600023019303685A6901921A6842F024
:1045B80001021A60019B0268136823F48063136088
:1045C80003685A6812F4006F38D0222D21D02A2DA2
:1045D8001FD0426B1268526892B24285428D92B2E5
:1045E8001AB1026C42F0040202645A6822F40062B2
:1045F8005A60606BFDF71BFE01281FD0636B434AAE
:104608001A65606BFDF700FEC0B1606B036D9847DB
:1046180014E0A26B1268526892B26285628D92B2FF
:104628001AB1226C42F0040222645A6822F4006231
:104638005A60A06BFDF7FBFD012840D1638D9BB24A
:1046480023B323685A6912F0040F09D01A69636A00
:104658001A70636A01336362638D013B9BB26385A1
:1046680023685A6912F0400F09D01A69636A1A70F0
:10467800636A01336362638D013B9BB26385638D1B
:104688009BB21BB1236C43F004032364236C13BB5C
:104698002A2D25D094F83D30DBB2282B29D0236B66
:1046A800222B01D0222D19D100232363202284F844
:1046B8003D2084F83E302046FFF7DAFB0EE0A36B7E
:1046C800124A1A65A06BFDF79FFD0028B6D0A06BB3
:1046D800036D9847B2E72046FFF79CFE03B030BD54
:1046E80000232363282384F83D302046FFF7C0FBCE
:1046F800D0E7074BE36200232363202284F83D20A0
:1047080084F83E302046FFF701FCE7E7394300080C
:104718000000FFFFF8B5044602685568C66A90F8BD
:104728003E30DBB290F83D10102B14D0C8B2402BAD
:1047380011D0236C002B77D05369002113F0020F9E
:1047480075D015F4007F72D0236C03B191692046AF
:10475800FFF7B5FBF8BD9769516911F0010005D164
:10476800B6F52A0FF6D0B6F12A4FF3D010B115F4EA
:10477800007F27D111F0080F02D015F4007F28D14F
:1047880011F0020F02D015F4007F26D117F0040FA4
:104798002FD0526812F4006FDCD111F0800F05D0D1
:1047A80015F4806F02D011F0040F1AD011F0040F25
:1047B800D0D015F4007FCDD0102B16D02046FFF7AF
:1047C800F2FBC7E72046FEF7D8FD2046FEF70AFCB5
:1047D800C0E72046FEF75BFCBCE72046FEF76EFC10
:1047E800B8E72046FFF73AFCB4E72046FFF7D7FAC8
:1047F800B0E7536813F4006FACD111F0400F05D047
:1048080015F4806F02D011F0040F09D011F0040FD5
:10481800A0D015F4007F9DD02046FFF787FC99E7CC
:104828002046FFF713FD95E79169536986E713F072
:10483800100F02D015F4007F18D121281AD029288A
:1048480018D013F0400F05D015F4806F02D013F084
:10485800040F28D013F0040F3FF47CAF15F4007F49
:104868003FF478AF2046FEF73BFD73E72046FFF79D
:104878008DFE6FE713F0800F05D015F4806F02D01E
:1048880013F0040F0BD013F0040F3FF463AF15F4CB
:10489800007F3FF45FAF2046FEF713FD5AE720463E
:1048A800FFF7C1FA56E72046FFF7E3FA52E7F8B5F3
:1048B800044603685D695F6890F83E20D2B215F43B
:1048C800807F07D017F4807F3CD06FF480715961E6
:1048D800012600E0002615F4007F08D017F4807F39
:1048E80005D046F0020623686FF40071596115F48B
:1048F800806F19D017F4807F16D0638D99B294F821
:104908003D30DBB2206B202A1ED023686FF4806113
:10491800596146F00406102A01D0402A04D12268C1
:10492800136843F40073136015F4006F08D017F48C
:10493800807F05D046F0080623686FF400625A614C
:1049480086B9F8BD0026C6E70029DED1212B05D09F
:10495800292B03D0282BD8D12128D6D12046FFF7E0
:10496800D7FAE1E7236C1E4326642046FFF752FD81
:10497800E7E70000002800F0BF8070B5044690F813
:104988004130002B51D0022284F841202168CB69A4
:1049980023F47B6323F00F03CB6123681A626369F6
:1049A800934263D0E368002B46D11025A368202BDF
:1049B80000D86D00012000F0B7FE2369B3F5007F31
:1049C8003CD0B0FBF5F000EB800043006269B3FB1C
:1049D800F2F30533494AA2FB0323DB0803F0010283
:1049E8009B1A5B081202991EFD2941D821690A43C6
:1049F800216813430B622168CB6923F47B6323F09E
:104A08000F036268A0680243E0680243A06902439A
:104A1800134343F40063CB61236A012B2ED000209B
:104A28006064012384F8413070BD80F84030344B15
:104A38004363FDF7C3F9A6E72025B7E7E36853B159
:104A4800AD00B0FBF5F000EB800043006269B3FBFA
:104A5800F2F30533BEE7ED00B0FBF5F000EB8000A4
:104A680043006269B3FBF2F30533B3E70022BAE708
:104A7800636C43F0100363640120D5E7214B636343
:104A88002268214B9A421FD04FF04022D36923F469
:104A98007B6323F00F03D36122681B4B9A4215D026
:104AA8004FF0402302221A622268174B9A4210D014
:104AB8004FF04021CA6992B26368B3F5007F0AD00B
:104AC800C3B94FF4807608E0104ADFE7A3F58063A6
:104AD800E8E70E49EEE74FF48076A068E568238B97
:104AE8002B439BB203439BB23343134343F400630A
:104AF800CB6194E70026F0E701207047CDCCCCCC01
:104B08008B4B0008954D00080038004000340040E9
:104B1800704708B5426A03681288DA60436A02334C
:104B28004362438D013B9BB24385438D9BB203B1E6
:104B380008BD0268536823F0A0035360012380F87E
:104B48004130FFF7E5FFF3E7704708B50368DA6817
:104B5800C36A1A80C36A0233C362438E013B9BB2A5
:104B68004386438E9BB203B108BD0268536823F0A5
:104B780060035360012380F84130FFF7E5FFF3E756
:104B8800704710B584B0044602689368039390F8A0
:104B98004130DBB2042B06D094F84130DBB2032B52
:104BA8002CD004B010BD039B13F0010F03D0536841
:104BB80013F0400F1FD1039B13F0400FECD0236874
:104BC8005A6812F0200FE7D05A6822F060025A6043
:104BD800002301932368DA6801929B680193019B83
:104BE800012384F84130636C43F002036364204678
:104BF800FFF7C6FFD0E7FFF7A8FFDCE7039B13F03A
:104C0800020F04D023685B6813F0800F1DD1039B4B
:104C180013F0080FC5D023685A6812F0200FC0D0CF
:104C28005A6822F0A0025A600023029323689B6806
:104C38000293029B012384F84130636C43F0040320
:104C480063642046FFF79CFFABE72046FFF761FF50
:104C5800DDE7704708B5436A9A1C426202681B8800
:104C6800D360438D013B9BB24385438D9BB23BB9D7
:104C78000268536823F0A0035360438E9BB203B1CC
:104C880008BD012380F84130FFF7E3FFF8E7000093
:104C980008B50268144B9A421BD04FF04023DA68DB
:104CA800C36A991CC1621A80438E013B9BB243863A
:104CB800438E9BB263B902680B4B9A420CD04FF0FB
:104CC8004022536823F060035360438D9BB22BB19D
:104CD80008BDA3F58063E2E7044AF2E7012380F800
:104CE8004130FFF7B6FFF3E70038004000340040DA
:104CF80008B5436A9A1C42621A880168124B9942A5
:104D080017D04FF04023DA60438D013B9BB24385B7
:104D1800438D9BB263B902680B4B9A420CD04FF09B
:104D28004022536823F0A0035360438E9BB22BB1FB
:104D380008BDA3F58063E6E7044AF2E7012380F89B
:104D48004130FFF786FFF3E70038004000340040A9
:104D580008B50368DA68C36A991CC1621A80438E71
:104D6800013B9BB24386438E9BB23BB902685368B2
:104D780023F060035360438D9BB203B108BD012348
:104D880080F84130FFF765FFF8E7000010B586B0FE
:104D9800044603689A680592704A93426FD04FF0B0
:104DA8004022916804915B68039353680293636897
:104DB800B3F5007F01D0002B70D1059B13F0020FD3
:104DC80003D0039B13F0800F5CD1049B13F0010FF9
:104DD80003D0029B13F0400F58D1049B13F0400FEF
:104DE80024D0029B13F0200F20D022685B4B9A42FC
:104DF80050D04FF04022536823F06003536022687C
:104E0800536823F0A0035360002300932368DA68F3
:104E180000929B680093009B012384F84130636CE7
:104E280043F0020363642046FFF7AAFE059B13F0D4
:104E3800080F22D0039B13F0200F1ED0226853685E
:104E480023F0A00353602268444B9A4224D04FF0C9
:104E58004022536823F060035360002301932368C2
:104E68009B680193019B012384F84130636C43F0F4
:104E7800040363642046FFF783FE06B010BDA2F565
:104E880080628EE72046FFF7E5FE9EE72046FFF7A3
:104E9800FFFEA2E7324AAEE7314ADAE7049B13F095
:104EA800020F03D0029B13F0800F4AD1059B13F029
:104EB800010F03D0039B13F0400F46D1059B13F05D
:104EC800400F1CD0039B13F0200F18D022685368A2
:104ED80023F0600353602268204B9A4239D04FF088
:104EE8004022536823F0A0035360012384F8413023
:104EF800636C43F0020363642046FFF741FE049BA2
:104F080013F0080FB9D0029B13F0200FB5D0226818
:104F1800124B9A421FD04FF04022536823F0A0034F
:104F280053602268536823F060035360012384F8B8
:104F38004130636C43F0040363642046FFF720FEAE
:104F48009BE72046FFF7D4FEB0E72046FFF700FFB7
:104F5800B4E7034AC5E7024ADFE700BF003800406C
:104F680000340040002800F0E48170B582B00446A7
:104F7800036813F0010F3BD0A74B9B6803F00C03A9
:104F8800042B2CD0A44B9B6803F00C03082B21D0D6
:104F98006368B3F5803F4FD0B3F5A02F52D09E4B36
:104FA8001A6822F480321A601A6822F480221A6081
:104FB8006368002B50D0FDF7A3F80546964B1B6895
:104FC80013F4003F14D1FDF79BF8401B6428F5D972
:104FD8000320B3E1904B5B6813F4800FD8D08E4B5D
:104FE8001B6813F4003F03D06368002B00F0A38113
:104FF800236813F0020F55D0874B9B6813F00C0FF2
:105008003ED0854B9B6803F00C03082B33D0E36834
:10501800002B68D0814B01221A60FDF771F8054614
:105028007D4B1B6813F0020F54D1FDF769F8401B44
:105038000228F5D9032081E1774A136843F48033C5
:105048001360B5E7744B1A6842F480221A601A6834
:1050580042F480321A60ABE7FDF752F805466E4B12
:105068001B6813F4003FC3D0FDF74AF8401B6428BF
:10507800F5D9032062E1684B5B6813F4800FC6D151
:10508800654B1B6813F0020F04D0E368012B01D0B5
:10509800012053E1604A136823F0F803216943EAC9
:1050A800C1031360236813F0080F40D0636963B32A
:1050B8005B4B01221A60FDF723F80546564B5B6FE0
:1050C80013F0020F33D1FDF71BF8401B0228F5D966
:1050D800032033E1504A136823F0F803216943EAB7
:1050E800C1031360DEE74D4B00221A60FDF708F894
:1050F8000546494B1B6813F0020FD3D0FDF700F8A3
:10510800401B0228F5D9032018E1454B00221A60FC
:10511800FCF7F6FF0546404B5B6F13F0020F06D015
:10512800FCF7EEFF401B0228F5D9032006E12368AF
:1051380013F0040F79D0384B1B6C13F0805F33D118
:1051480000230193344B1A6C42F080521A641B6C92
:1051580003F080530193019B0125324B1B6813F424
:10516800807F23D0A368012B34D0052B38D02A4B5D
:105178001A6F22F001021A671A6F22F004021A67E6
:10518800A368002B36D0FCF7BBFF0646224B1B6FEB
:1051980013F0020F48D1FCF7B3FF801B41F28833AC
:1051A8009842F3D90320C9E00025D6E71D4A1368C1
:1051B80043F480731360FCF7A3FF0646194B1B6882
:1051C80013F4807FCED1FCF79BFF801B0228F5D912
:1051D8000320B3E0104A136F43F001031367CFE7CE
:1051E8000D4B1A6F42F004021A671A6F42F001025F
:1051F8001A67C5E7FCF784FF0646074B1B6F13F0D9
:10520800020F11D0FCF77CFF801B41F288339842D3
:10521800F3D9032092E000BF003802400000474263
:10522800800E474200700040EDB9A369002B00F0E2
:105238008480454A926802F00C02082A51D0022B59
:1052480017D0424B00221A60FCF75AFF04463E4B27
:105258001B6813F0007F42D0FCF752FF001B0228A6
:10526800F5D903206AE0384A136C23F0805313649D
:10527800DBE7364B00221A60FCF742FF0546324B4B
:105288001B6813F0007F06D0FCF73AFF401B02288A
:10529800F5D9032052E0E369226A1343626A43EABC
:1052A8008213A26A5208013A43EA0243E26A43EAD5
:1052B8000263254A5360254B01221A60FCF720FF40
:1052C8000446214B1B6813F0007F06D1FCF718FF3A
:1052D800001B0228F5D9032030E000202EE0002032
:1052E8002CE0012B2CD0184B5B6803F48001E26999
:1052F800914201D0012021E003F03F02216A8A4255
:1053080001D001201AE0616A47F6C0721A408A4249
:1053180001D0012012E003F44032A16A8A4201D090
:1053280001200BE003F07063E26A93420AD0012087
:1053380004E001207047012000E0002002B070BDA9
:105348000120FBE70020F9E70038024060004742EF
:10535800324B9B6803F00C03042B5CD0082B01D064
:105368002F4870472DE9F04B2C4B5A6802F03F024A
:105378005B6813F4800F2BD0284B5B68C3F388134A
:105388001E4600275C010025E41A65EB0705A90104
:1053980041EA9461A001001B61EB0501CB0043EADF
:1053A8005073C400A01943EB07014B0243EAD053E2
:1053B8004402204619460023FBF746F9174B5B6861
:1053C800C3F3014301335B00B0FBF3F0BDE8F08B9E
:1053D800124B5B68C3F388131E4600275C01002547
:1053E800E41A65EB0705A90141EA9461A001001BD5
:1053F80061EB0501CB0043EA5073C400A01943EBED
:1054080007018B0243EA9053840220461946002381
:10541800FBF71AF9D2E70348704700BF003802408B
:105428000024F40000127A00002800F09E8070B575
:105438000446504B1B6803F00F038B4209D2CBB2D2
:105448004C4A1370136803F00F038B4201D00120FC
:1054580070BD236813F0020F17D013F0040F04D0A7
:10546800454A936843F4E0539360236813F0080FA8
:1054780004D0414A936843F4604393603E4A93687A
:1054880023F0F003A068034393600D46236813F0EC
:10549800010F32D06368012B21D09A1E012A25D929
:1054A800354A126812F0020F61D033498A6822F037
:1054B800030213438B60FCF723FE06462E4B9B68C2
:1054C80003F00C036268B3EB820F16D0FCF718FEEA
:1054D800801B41F288339842F0D90320B8E7264A66
:1054E800126812F4003FE0D10120B1E7224A1268A5
:1054F80012F0007FD9D10120AAE71E4B1B6803F0E8
:105508000F03AB4209D9EAB21A4B1A701B6803F0B1
:105518000F03AB4201D001209AE7236813F0040F70
:1055280006D0154A936823F4E053E1680B4393606F
:10553800236813F0080F07D00F4A936823F46043D9
:10554800216943EAC1039360FFF702FF0A4B9B6896
:10555800C3F30313094AD35CD840094B1860094BBD
:105568001868FCF783FD002072E7012070470120CE
:105578006EE700BF003C024000380240AC800008E3
:105588003800002040000020014B1868704700BF19
:105598003800002008B5FFF7F7FF044B9B68C3F3FA
:1055A8008223034AD35CD84008BD00BF00380240BC
:1055B800BC80000808B5FFF7E7FF044B9B68C3F3FE
:1055C8004233034AD35CD84008BD00BF00380240CC
:1055D800BC80000830B583B00446036813F0050F9B
:1055E80006D1236813F0020F2ED1002003B030BD7E
:1055F800494B00221A60FCF783FD0546474B1B68A0
:1056080013F0006F06D0FCF77BFD401B0228F5D98C
:105618000320EBE76268A3681B0743EA82133F4A4B
:10562800C2F884303C4B01221A60FCF769FD05463C
:105638003A4B1B6813F0006FD3D1FCF761FD401B98
:105648000228F5D90320D1E700230193334B1A6CC4
:1056580042F080521A641B6C03F080530193019B43
:105668002F4A136843F480731360FCF749FD05461D
:105678002B4B1B6813F4807F06D1FCF741FD401BC0
:105688000228F5D90320B1E7244B1B6F13F44073AC
:1056980012D0E26802F440729A420DD01F4B1A6F82
:1056A80022F440721F4901200860002008601A6730
:1056B8001B6F13F0010F13D1E36803F44072B2F5C6
:1056C800407F1ED0154A936823F4F813936013495A
:1056D8000B6FE268C2F30B0213430B67002085E7E8
:1056E800FCF70EFD05460D4B1B6F13F0020FE3D1BF
:1056F800FCF706FD401B41F288339842F3D903209A
:1057080074E706498A6822F4F81223F0704323F4F8
:10571800407313438B60DAE7680047420038024061
:1057280000700040400E474201282AD1174B9B6861
:1057380013F4000303D0012B25D115487047134BF0
:105748005B6813F4800F14D0104B5B6803F03F03C1
:105758001048B0FBF3F00D4AD2F88430C3F3881335
:1057680000FB03F0D2F88430C3F30273B0FBF3F00C
:105778007047064B5B6803F03F030748B0FBF3F044
:10578800E9E7002070470020704700BF003802405A
:105798000080BB0000127A000024F40000283BD0EF
:1057A80010B504460023836290F85130002B2ED0A8
:1057B800022384F851302268136823F040031360F1
:1057C8006368A2681343E26813432269134362695A
:1057D8001343A26902F400721343E2691343226A75
:1057E8001343A16A22680B431360638B03F004031D
:1057F800616A22680B4353602268D36923F400630B
:10580800D36100206065012384F8513010BD80F811
:105818005030FCF71FFBCBE70120704710B4036A38
:10582800046A24F001040462846924F0F00444EA60
:10583800021223F00A030B43826103625DF8044BF2
:10584800704710B4036A23F0100303628469036A83
:1058580024F4704444EA023223F0A00343EA01131B
:10586800826103625DF8044B7047836823F070031C
:10587800194341F00701816070470268D36843F01B
:105888000103D3600268936803F00703062B03D073
:10589800136843F001031360002070477047704796
:1058A80070477047704710B5044603681A6912F0CC
:1058B800020F11D0DA6812F0020F0DD06FF0020259
:1058C8001A610123037703689B6913F0030F70D0F3
:1058D800FFF7E6FF0023237723681A6912F0040F05
:1058E80012D0DA6812F0040F0ED06FF004021A61B9
:1058F8000223237723689B6913F4407F5FD02046F7
:10590800FFF7CEFF0023237723681A6912F0080FE8
:1059180012D0DA6812F0080F0ED06FF008021A6180
:10592800042323772368DB6913F0030F4ED0204646
:10593800FFF7B6FF0023237723681A6912F0100FC8
:1059480012D0DA6812F0100F0ED06FF010021A6140
:10595800082323772368DB6913F4407F3DD0204672
:10596800FFF79EFF0023237723681A6912F0010FBF
:1059780003D0DA6812F0010F36D123681A6912F0E1
:10598800800F03D0DA6812F0800F34D123681A69C7
:1059980012F0400F03D0DA6812F0400F32D12368BA
:1059A8001A6912F0200F03D0DA6812F0200F30D1F4
:1059B80010BDFFF774FF2046FFF773FF8AE7204604
:1059C800FFF76DFF2046FFF76CFF9BE72046FFF7C8
:1059D80066FF2046FFF765FFACE72046FFF75FFF4D
:1059E8002046FFF75EFFBDE76FF001021A6120460F
:1059F800FFF754FFC1E76FF080021A61204600F0FC
:105A08004AF9C3E76FF040021A612046FFF74AFFE0
:105A1800C5E76FF020021A61204600F03BF9C7E79E
:105A28000368304A904212D0B0F1804F0FD0A2F5EF
:105A38007C4290420BD002F58062904207D002F57A
:105A48008062904203D002F57842904203D123F05D
:105A580070034A681343234A90422AD0B0F1804F1A
:105A680027D0A2F57C42904223D002F58062904272
:105A78001FD002F5806290421BD002F57842904216
:105A880017D002F57052904213D002F5806290420E
:105A98000FD002F5806290420BD0A2F59832904266
:105AA80007D002F58062904203D002F580629042EE
:105AB80003D123F44073CA68134323F080034A696F
:105AC800134303608B68C3620B688362054B98427B
